:020000040800F2
:1000000080060020CD010008BD030008B5030008EC
:10001000B90300087F020008410600080000000044
:10002000000000000000000000000000E1030008E4
:100030008302000800000000BF030008DD0500087F
:10004000E7010008E7010008E7010008E7010008F0
:10005000E7010008E7010008E7010008E7010008E0
:10006000E7010008E7010008E7010008E7010008D0
:10007000E7010008E7010008E7010008E7010008C0
:10008000E7010008E7010008E7010008E7010008B0
:10009000E7010008E7010008E7010008E7010008A0
:1000A000E7010008E7010008E7010008E701000890
:1000B000E7010008E7010008E7010008E701000880
:1000C000E7010008E7010008E7010008E701000870
:1000D000E7010008E7010008E7010008E701000860
:1000E000E7010008E7010008E7010008E701000850
:1000F000E7010008E7010008E7010008E701000840
:10010000E7010008E7010008E7010008E70100082F
:10011000E7010008E7010008E7010008E70100081F
:10012000E7010008E7010008E7010008E70100080F
:1001300000F002F800F03AF80AA090E8000C8244BF
:100140008344AAF10107DA4501D100F02FF8AFF29C
:10015000090EBAE80F0013F0010F18BFFB1A43F0A5
:1001600001031847E006000000070000103A24BF12
:1001700078C878C1FAD8520724BF30C830C144BF0C
:1001800004680C607047000000230024002500264E
:10019000103A28BF78C1FBD8520728BF30C148BFEA
:1001A0000B6070471FB51FBD10B510BD00F031F8D2
:1001B0001146FFF7F7FF00F0EFFA00F04FF803B435
:1001C000FFF7F2FF03BC00F053F800000948804736
:1001D00009480047FEE7FEE7FEE7FEE7FEE7FEE729
:1001E000FEE7FEE7FEE7FEE704480549054A064B41
:1001F00070470000E1050008310100088000002080
:100200008006002080020020800200207047704796
:100210007047754600F028F8AE460500694653461B
:1002200020F00700854618B020B5FFF7DDFFBDE8D8
:1002300020404FF000064FF000074FF000084FF04D
:10024000000B21F00701AC46ACE8C009ACE8C009DE
:10025000ACE8C009ACE8C0098D4670470446AFF36E
:1002600000802046FFF7ABFF004870471C000020CD
:1002700001491820ABBEFEE726000200704700BF10
:10028000FEE770472DE9F0410246002500260020D8
:1002900000230024002791F803C00CF00F0591F80B
:1002A00003C00CF0100CBCF1000F03D091F802C099
:1002B0004CEA050591F800C0BCF1000F31D014687C
:1002C00000202BE04FF0010C0CFA00F3B1F800C055
:1002D0000CEA03069E4220D183004FF00F0C0CFA6B
:1002E00003F7BC4305FA03FC4CEA040491F803C08D
:1002F000BCF1280F06D14FF0010C0CFA00FCC2F83B
:1003000014C00AE091F803C0BCF1480F05D14FF0CA
:10031000010C0CFA00FCC2F810C0401C0828D1D314
:100320001460B1F800C0BCF1FF0F34DD5468002048
:100330002EE000F1080C4FF0010808FA0CF3B1F8B8
:1003400000C00CEA03069E4221D183004FF00F0C3F
:100350000CFA03F7BC4305FA03FC4CEA040491F8D9
:1003600003C0BCF1280F05D100F1080C08FA0CF805
:10037000C2F8148091F803C0BCF1480F07D100F116
:10038000080C4FF0010808FA0CF8C2F81080401C65
:100390000828CED35460BDE8F0810246002093685F
:1003A0000B400BB1012000E0002070474161704715
:1003B0000161704700BFFEE700BFFEE7704770476E
:1003C00029B1064A92690243044B9A6104E0034A48
:1003D00092698243014B9A6170470000001002400D
:1003E0007047000070B5044614B10120344908700C
:1003F00033480078002846D010213248FFF7CDFF5F
:1004000008B9012500E0002508212E48FFF7C5FFA7
:1004100008B9012000E00020054304212948FFF726
:10042000BCFF08B9012000E0002005430121264857
:10043000FFF7B3FF012800D100E00020054315B30A
:100440000A2000F03BF900201D49087010211D48CA
:10045000FFF7A3FF08B9012070BD08211948FFF775
:100460009CFF08B90220F7E704211648FFF795FF23
:1004700008B90320F0E701211348FFF78EFF012898
:100480001BD10420E8E710210E48FFF786FF012862
:1004900013D108210B48FFF780FF01280DD104215B
:1004A0000848FFF77AFF012807D101210648FFF726
:1004B00074FF10B90120024908700020CCE7000049
:1004C00018000020001801400008014010B500F09D
:1004D00001F810BD0CB50020019000903348006871
:1004E00040F480303149086000BF3048006800F4B3
:1004F000003000900198401C0190009818B90198B4
:10050000B0F5A06FF1D12948006800F4003010B1B7
:100510000120009001E0002000900098012843D1C4
:100520002348006840F01000214908600846006830
:1005300020F0030008600846006840F002000860F0
:100540001A484068194948600846406848600846AB
:10055000406840F4806048600846406820F47C10A1
:1005600048600846406840F4E81048600846006863
:1005700040F08070086000BF0C48006800F0007018
:100580000028F9D00948406820F003000749486076
:100590000846406840F00200486000BF03484068D9
:1005A00000F00C000828F9D10CBD0000001002403A
:1005B00000200240042808D14FF0E021096941F0F1
:1005C00004014FF0E022116107E04FF0E0210969DA
:1005D00021F004014FF0E0221161704770470000E4
:1005E00010B51348006840F0010011490860084642
:1005F0004068104908400E494860084600680E49A6
:1006000008400B4908600846006820F48020086014
:100610000846406820F4FE0048604FF41F008860E0
:10062000FFF754FF4FF000600449086010BD000060
:10063000001002400000FFF8FFFFF6FE08ED00E0AA
:1006400000BFFEE708B501210820FFF7B9FE102022
:100650008DF803000001ADF8000003208DF80200C2
:1006600069460448FFF70EFE4FF480710148FFF71A
:100670009DFE08BD000C014010B56FF00400FFF7AF
:1006800099FF0A4800680A49B0FBF1F0094908706F
:100690000846007800EB4001C1EBC0104FF6FF7137
:1006A00001EAC0000449088010BD000000000020DD
:1006B00000127A0014000020160000200146114AA2
:1006C00012884A434FF0E0235A6100229A611A4689
:1006D000126942F001021A6100BF4FF0E022106976
:1006E00000F001021AB100F48032002AF5D04FF078
:1006F000E022126922F001024FF0E0231A61002289
:100700009A6170471600002008B501214420FFF7C8
:1007100057FE28208DF8030003208DF802000120E9
:10072000ADF8000069460748FFF7ACFD48208DF89A
:1007300003001C20ADF8000069460348FFF7A2FD46
:1007400008BD0000000801400018014008B5012163
:100750004820FFF735FE10208DF8030003208DF8A8
:1007600002002020ADF8000069460948FFF78AFD25
:1007700020210748FFF71CFE2020ADF80000694645
:100780000448FFF77FFD20210248FFF711FE08BD56
:10079000000C0140001801400024FFF76DFFFFF737
:1007A000D5FFFFF74FFFFFF7AFFF0020224908609A
:1007B00040E00020FFF716FE0446002C37D0012C45
:1007C00022D0022C0ED0032C15D0042C2ED11A4886
:1007D0000C30006808B9012000E0002016490C31F7
:1007E000086023E01548006808B9012000E00020F7
:1007F000124908601AE01048006808B9012000E0BA
:1008000000200D49086011E00B48006808B901207C
:1008100000E00020084908600948D0F8940108B9B0
:10082000012000E000200549086000BF02E00A2026
:10083000FFF744FFBDE70000948121429401234269
:100840000000234264080008000000201C00000093
:100850006C010008800800081C00002064060000ED
:100860008801000800A24A04000000000000000007
:10087000010203040607080900000000010000004F
:0400000508000131BD
:00000001FF
