:020000040800F2
:1000000070070020D5010008F14F0008970A00088A
:10001000ED4F0008E10600088355000800000000CD
:10002000000000000000000000000000E95100088E
:10003000E90700080000000079500008FD520008A0
:10004000EF010008EF010008EF010008EF010008D0
:10005000EF010008EF010008EF010008EF010008C0
:10006000EF010008EF010008EF010008EF010008B0
:10007000EF010008EF010008EF010008EF010008A0
:10008000EF010008EF010008EF010008EF01000890
:10009000EF010008EF010008EF010008EF01000880
:1000A000EF010008EF010008EF010008EF01000870
:1000B000EF010008EF010008EF010008EF01000860
:1000C000EF010008EF010008EF010008EF01000850
:1000D000EF01000861530008EF010008EF0100087C
:1000E000EF010008EF010008EF010008EF01000830
:1000F000EF010008EF010008EF010008EF01000820
:10010000EF010008EF010008EF010008EF0100080F
:10011000EF010008EF010008EF010008EF010008FF
:10012000EF010008EF010008EF010008EF010008EF
:1001300000F002F800F03FF80AA090E8000C8244BA
:100140008344AAF10107DA4501D100F034F8AFF297
:10015000090EBAE80F0013F0010F18BFFB1A43F0A5
:1001600001031847149E0000349E0000103A24BF7B
:1001700078C878C1FAD8520724BF30C830C144BF0C
:1001800004680C607047000000230024002500264E
:10019000103A28BF78C1FBD8520728BF30C148BFEA
:1001A0000B607047782900F07780002070471FB5FA
:1001B0001FBD10B510BD00F027F91146FFF7F7FF7E
:1001C00005F060FA00F045F903B4FFF7F2FF03BC55
:1001D00005F0D9F90948804709480047FEE7FEE7DE
:1001E000FEE7FEE7FEE7FEE7FEE7FEE7FEE7FEE7E7
:1001F00004480549054A064B7047000001530008B2
:1002000031010008700100207007002070030020F9
:1002100070030020704700000FB4044910B503AA12
:10022000029800F0C3F810BC5DF814FB1800002021
:100230002DE9F0410E460446002020622046E16888
:10024000884730B3252805D0D4E901219047206A9A
:10025000401CF2E7E168204600278847050018D0D7
:10026000A5F14100192802D820354FF40067324625
:10027000294620462760FFF795FF40B1012804D0AA
:10028000F61D26F007060836D8E7361DD6E72846BD
:10029000DAE7206ABDE8F08170B504460D462146D4
:1002A0001068AFF300802188090502D50F4A7A440F
:1002B00002E00E4A7A440E32002104F1240305E0E4
:1002C00000F00F060009965D5E54491C0028F7D126
:1002D00020780023000704D5702D02D009B1022335
:1002E00011322046BDE8704000F006B8469C000080
:1002F00070477047704770472DE9F0470D469946A3
:100300009246044600F124080168880604D5E06995
:1003100021F01001216000E00120A84201DD471B0F
:1003200000E00027A1697A1902EB0900081AA06110
:100330002078C00602D42046AFF30080002608E0F3
:10034000D4E901211AF806009047206A401C761C67
:1003500020624E45F4DB2078C0060AD52046AFF374
:10036000008006E0D4E9012130209047206A401C3B
:100370002062381EA7F10107F4DC07E0D4E901216F
:1003800018F805009047206A401C2062281EA5F13D
:100390000105F3DC2046AFF300802078000602D58B
:1003A0000220BDE8F0870120FBE70000074B70B595
:1003B0000D467B4400F011F80446284600F020F872
:1003C00010B14FF0FF3070BD204670BDB352000039
:1003D00001694A1C02610878704700B58FB0CDE909
:1003E00001310021059105497944CDE903101146F9
:1003F0006846FFF71DFF0FB000BD0000E5FFFFFFDF
:10040000007B00F080007047754600F029F8AE468A
:1004100005006946534620F00700854618B020B510
:10042000FFF7E6FEBDE820404FF000064FF0000762
:100430004FF000084FF0000B21F00701AC46ACE88C
:10044000C009ACE8C009ACE8C009ACE8C0098D46F9
:1004500070470446AFF300802046FFF7B5FE00006A
:10046000004870471001002021B1826842F001026B
:10047000826003E0826822F001028260704700001F
:1004800010B504461248844208D10121401504F0F9
:1004900031FE0021601504F02DFE17E00D48844266
:1004A00008D10121001504F025FE0021201504F0DB
:1004B00021FE0BE00848844208D10121C80304F062
:1004C00019FE00214FF4004004F014FE10BD00009E
:1004D0000024014000280140003C0140014600206A
:1004E0008A6802F004020AB1012000E0002070478F
:1004F0000146C86C80B270470246002013680B406A
:100500000BB1012000E000207047014600208A68FE
:1005100002F008020AB1012000E00020704700004C
:1005200030B502460020002350680F4C20400D7962
:100530000C6844EA05242043506090680B4C20402E
:10054000D1E902542C434D7944EA4504204390609C
:10055000D06A20F470000C7C641EE4B2234340EAAD
:100560000350D06230BD0000FFFEF0FFFDF7F1FF49
:10057000F0B504460D4600200021092D11DDE0688C
:10058000A5F10A0606EB4607072606FA07F1884397
:10059000A5F10A0606EB460603FA06F10843E060F9
:1005A0000CE0206905EB4507072606FA07F18843AA
:1005B00005EB450603FA06F108432061072A0FDA26
:1005C000606B561E06EB86071F2606FA07F1884366
:1005D000561E06EB860605FA06F10843606322E024
:1005E0000D2A0FDA206BD61F06EB86071F2606FAA8
:1005F00007F18843D61F06EB860605FA06F1084385
:10060000206310E0E06AA2F10D0606EB86071F26C4
:1006100006FA07F18843A2F10D0606EB860605FAF5
:1006200006F10843E062F0BD816841F00801816095
:10063000704721B1826842F4A002826003E08268C0
:1006400022F4A00282607047816841F00401816059
:100650007047000000B587B001214FF4017004F02D
:1006600039FD4FF4004004F009FD0220ADF804000C
:1006700000208DF8070001A9174800F044F9174839
:10068000FFF7FEFE002002908DF80C008DF80D00A3
:100690004FF4602004900020059001208DF8180090
:1006A00002A90E48FFF73CFF01210C48FFF7DCFED2
:1006B0000A48FFF7B9FF00BF0848FFF726FF0028E8
:1006C000FAD10648FFF7C0FF00BF0448FFF706FF56
:1006D0000028FAD107B000BD000801400024014005
:1006E00000BFFEE739B1084A1268012383401A436C
:1006F000054B1A6006E0044A1268012383409A43BE
:10070000014B1A60704700000074004008B50146B4
:1007100000200090054800902C2000EB9100009AEA
:10072000104400900098006880B208BD007400403A
:1007300030B5002200230A4C226840F6FE74844043
:10074000A243D1E900452C438D682C43CD6844EA8F
:10075000050303FA00F42243014C226030BD00007F
:100760000074004008B500220092054A009200F192
:100770000802009B1A440092009A116008BD000014
:100780000074004000B585B00121042004F0A2FCF3
:100790000121480704F08EFC1020ADF81000002065
:1007A0008DF8130003208DF8120004A90D4800F005
:1007B000AAF810210B4800F03AF9002000900190AF
:1007C00002900220039069460020FFF7B1FF01214B
:1007D0000020FFF787FF00210846FFF7C3FF05B0A1
:1007E00000BD0000000801407047000051B18200C8
:1007F000A2F1C042126842F001038200A2F1C0429D
:10080000136009E08200A2F1C0421268034B1A4053
:100810008300A3F1C0431A6070470000FEFF0F0081
:10082000D0E901121143C2681143026911434269C0
:10083000114382691143C2691143026A1143426A3A
:100840001143826A1143C26A1143026B1143026869
:100850009200A2F1C0421160816808290BD10168A1
:100860008900A1F1C041096841F040020168890096
:10087000A1F1C0410A60416B0968426B526841EACC
:100880000211426B926841EA0221426B928941EA6D
:100890000241426B128A41EA0251426B127D41EAE7
:1008A0000261426B926911430268521C9200A2F1EC
:1008B000C0421160C16AB1F5804F1BD1816B0968DC
:1008C000826B526841EA0211826B926841EA02210E
:1008D000826B128A41EA0251826B127D41EA026107
:1008E000826B9269114302689200A2F1C042C2F881
:1008F000041107E06FF0704201688900A1F1C04166
:10090000C1F8042170472DE9F04102460025002678
:10091000002000230024002791F803C00CF00F05ED
:1009200091F803C00CF0100CBCF1000F03D091F84B
:1009300002C04CEA050591F800C0BCF1000F31D0AF
:10094000146800202BE04FF0010C0CFA00F3B1F812
:1009500000C00CEA03069E4220D183004FF00F0C2A
:100960000CFA03F7BC4305FA03FC4CEA040491F8C3
:1009700003C0BCF1280F06D14FF0010C0CFA00FCAB
:10098000C2F814C00AE091F803C0BCF1480F05D1C9
:100990004FF0010C0CFA00FCC2F810C0401C0828F3
:1009A000D1D31460B1F800C0BCF1FF0F34DD54683E
:1009B00000202EE000F1080C4FF0010808FA0CF3BB
:1009C000B1F800C00CEA03069E4221D183004FF02B
:1009D0000F0C0CFA03F7BC4305FA03FC4CEA0404C1
:1009E00091F803C0BCF1280F05D100F1080C08FAFA
:1009F0000CF8C2F8148091F803C0BCF1480F07D17D
:100A000000F1080C4FF0010808FA0CF8C2F8108049
:100A1000401C0828CED35460BDE8F0810246002077
:100A200093680B400BB1012000E00020704701618A
:100A30007047000010B504460723012221460948EB
:100A4000FFF796FD01210748FFF7F3FD00BF0221E4
:100A50000448FFF751FD0028F9D00248FFF748FD90
:100A600000B210BD002401402DE9F04107460C46BC
:100A70000025002608E03846FFF7DCFF0544052086
:100A800004F0A6FD701CC6B2A642F4DBB5FBF4F080
:100A900000B2BDE8F08100BFFEE7000008B501210B
:100AA000442004F017FB1820ADF8000048208DF812
:100AB000030069460648FFF726FF0120ADF8000055
:100AC00028208DF8030069460248FFF71CFF08BD87
:100AD000001801400008014010B5044614B101207F
:100AE000234908702248007858B310212148FFF7A5
:100AF00095FF50B108211F48FFF790FF28B1012151
:100B00001D48FFF78BFF01281BD10A2004F060FD70
:100B100000201749087010211648FFF77FFF08B919
:100B2000012010BD08211348FFF778FF08B9022003
:100B3000F7E701211048FFF771FF012815D10320C5
:100B4000EFE710210B48FFF769FF01280DD10821BD
:100B50000848FFF763FF012807D101210648FFF786
:100B60005DFF10B90120024908700020D9E700009C
:100B70001E000020001801400008014070B5044626
:100B8000002617480588408845431548808846F662
:100B90000401884216D112488079012812D1002020
:100BA0000F4988712A2048812B208881002108461E
:100BB00003F030FF01200A4988712B2048812A2048
:100BC000888103E00021084603F024FF04F0D6F9F1
:100BD000002602E003480480761CAE42FAD370BDC2
:100BE000000100200008006C10B50446002C66D1FE
:100BF0006C498871F02008804FF4A0704880084646
:100C0000808849F2413188420BD06648808846F698
:100C10000401884205D06348808845F2103188423B
:100C20001AD12C205F4908812A2048812B208881F5
:100C30000846808846F60401884205D059488088D5
:100C400045F21031884206D14FF4A0705549088012
:100C50004FF4F0704880A1E05248808845F210516E
:100C6000884210D14FF430504E4908814FF428503B
:100C700048814FF42C5088814FF4F07008804FF475
:100C8000487048808AE04748808841F6631188426E
:100C90000DD12C20434908812B2048812A208881AE
:100CA0004FF4F07008804FF44870488076E02220BE
:100CB0003C49088120204881212088816EE0012064
:100CC000384988714FF4A0700880F02048800846A9
:100CD000808849F24131884205D03248808845F207
:100CE0001031884207D12C202E4908812A204881C2
:100CF0002B2088813FE02B48808846F604018842FB
:100D000007D12C20274908812B2048812A2088815F
:100D100031E02448808845F21051884210D14FF4C8
:100D20003050204908814FF4285048814FF42C500E
:100D300088814FF4487008804FF4F07048801AE0C2
:100D40001848808841F6631188420DD12C2015493E
:100D500008812A2048812B2088814FF44870088020
:100D60004FF4F070488006E022200E4908812120CF
:100D70004881202088810B48808846F604018842FB
:100D800005D00848808845F21031884206D14FF4DA
:100D9000F070044908804FF4A0704880002003F0F0
:100DA000C3FC10BD0001002030B503460C461546BB
:100DB0005A48808849F24131884205D05748808896
:100DC00045F21031884214D15449488904F0D0F8D2
:100DD000181204F0C7F8D8B204F0C4F84F49888953
:100DE00004F0C6F8201204F0BDF8E0B204F0BAF83E
:100DF0008CE04A48808845F21051884220D147490A
:100E0000488904F0B5F8181204F0ACF84349498950
:100E1000491C88B204F0ACF8D8B204F0A3F83F49FA
:100E2000888904F0A5F8201204F09CF83B498989D0
:100E3000491C88B204F09CF8E0B204F093F865E035
:100E40003648808841F66311884228D1334880793A
:100E500020B932480088401EC01A83B22F49488901
:100E600004F086F8181204F07DF8D8B204F07AF88D
:100E7000181204F077F8D8B204F074F8274988897A
:100E800004F076F8201204F06DF8E0B204F06AF88D
:100E9000201204F067F8E0B204F064F836E01F486E
:100EA000808846F6040188421DD11C4880790128BB
:100EB00004D11A480088401EC01A83B217494889D5
:100EC00004F056F8181204F04DF8D8B204F04AF8BD
:100ED0001249888904F04CF8201204F043F8E0B27B
:100EE00004F040F812E00D488079012804D10B4845
:100EF0000088401EC01A83B208494889194604F088
:100F000047F806498889214604F042F803480089D9
:100F100003490880881C058030BD000000010020C6
:100F2000FE07006C00B59FB00121080204F0B2F882
:100F300001214FF4B47004F0CDF80120ADF8780031
:100F400010208DF87B0003208DF87A001EA9FE4842
:100F5000FFF7D9FC4CF23370ADF8780018208DF80B
:100F60007B0003208DF87A001EA9F848FFF7CBFC20
:100F70004FF68070ADF8780018208DF87B000320C4
:100F80008DF87A001EA9F248FFF7BDFC41F201007E
:100F9000ADF8780018208DF87B0003208DF87A00DA
:100FA0001EA9EC48FFF7AFFC012008900020099033
:100FB0000F200A9000200B900C900D900E90019045
:100FC0000290032003900020049005900690079063
:100FD00006200F90002010901190102012900020F9
:100FE000139015901490169017904FF4805018900D
:100FF000002019904FF480401A9000201B9008A800
:101000001C9001A81D900FA8FFF70AFC01210620E3
:10101000FFF7ECFB322004F0DBFA002003F04EFB7C
:10102000CD49888008468088FF280ADB08468088EA
:101030004FF6FF71884204D0C7488088B0F5134F3F
:101040007ED1D32003F094FF03F02EFBC2498880A9
:1010500003F02AFBC049888003F026FBBE49888044
:10106000084680884FF6FF7101EA0020BA4988805F
:1010700003F01AFBB84989880843B74988800846B5
:10108000808849F2413188425AD0BF2003F070FF76
:1010900003F00AFBB049888003F006FBAE49888064
:1010A00003F002FBAC49888003F0FEFAAA4988806D
:1010B000084680884FF6FF7101EA0020A649888023
:1010C00003F0F2FAA44989880843A34988800846B6
:1010D000808846F6040188427AD0D42003F048FF85
:1010E00003F0E2FA9C49888003F0DEFA9A4988808E
:1010F00003F0DAFA98498880084680884FF6FF7135
:1011000001EA00209449888003F0CEFA9249898848
:101110000843914988800846808845F2103188420A
:1011200056D04FF45A4003F023FF03F0BDFA8A492A
:1011300088804FF45B4003F01BFF03F0B5FA00E03A
:1011400046E085498880084680884FF6FF7101EAAD
:101150000020814988804FF45C4003F009FF03F0D0
:10116000A3FA7D49898808437B498880084680889E
:10117000B0F5004F02D145F2105088807648808843
:1011800045F21051884223D0A12003F0F1FE03F074
:101190008BFA7149888003F087FA6F498880084686
:1011A00080884FF6FF7101EA00206B49888003F0C8
:1011B0007BFA69498988084367498880084680889E
:1011C00045F26171884203D141F66310624988801B
:1011D0006148818861A0FFF71FF85F48808849F265
:1011E000413188427ED1CF2003F0C2FE002003F0BF
:1011F000B9FEC12003F0B6FE302003F0B3FEED20AF
:1012000003F0B6FE642003F0ADFE032003F0AAFE57
:10121000122003F0A7FE812003F0A4FEE82003F0D3
:10122000A7FE852003F09EFE102003F09BFE7A208F
:1012300003F098FECB2003F09BFE392003F092FED2
:101240002C2003F08FFE002003F08CFE342003F0EE
:1012500089FE022003F086FEF72003F089FE20209D
:1012600003F080FEEA2003F083FE002003F07AFE04
:10127000002003F077FEC02003F07AFE1B2003F06D
:1012800071FEC12003F074FE012003F06BFEC52047
:1012900003F06EFE302003F065FE302003F062FEA6
:1012A000C72003F065FEB72003F05CFE362003F094
:1012B0005FFE482003F056FE3A2003F059FE552009
:1012C00003F050FEB12003F053FE002003F04AFE6D
:1012D0001A2003F047FEB62003F04AFE0A2003F06E
:1012E00041FE00E0AAE0A22003F03CFEF22003F061
:1012F0003FFE002003F036FE262003F039FE0120D9
:1013000003F030FEE02003F033FE0F2003F02AFE4E
:101310002A2003F027FE282003F024FE082003F0F3
:1013200021FE0E2003F01EFE082003F01BFE5420B9
:1013300003F018FEA92003F015FE432003F012FE6F
:101340000A2003F00FFE11E0000C014000140140E0
:10135000001801400020014000010020204C4344BF
:101360002049443A25780D0A000000000F2003F0C0
:10137000F9FD002003F0F6FD002003F0F3FD00204E
:1013800003F0F0FD002003F0EDFDE12003F0F0FD9F
:10139000002003F0E7FD152003F0E4FD172003F023
:1013A000E1FD072003F0DEFD112003F0DBFD062048
:1013B00003F0D8FD2B2003F0D5FD562003F0D2FD1D
:1013C0003C2003F0CFFD052003F0CCFD102003F0FE
:1013D000C9FD0F2003F0C6FD3F2003F0C3FD3F20F1
:1013E00003F0C0FD0F2003F0BDFD2B2003F0C0FD76
:1013F000002003F0B7FD002003F0B4FD012003F04E
:10140000B1FD3F2003F0AEFD2A2003F0B1FD002026
:1014100003F0A8FD002003F0A5FD002003F0A2FDCD
:10142000EF2003F09FFD112003F0A2FD782004F0CF
:10143000CFF8292003F09CFD03F01AB9FE488088FC
:1014400046F6040188427CD1112003F091FD14205E
:1014500004F0BEF8D02003F08BFD072003F082FDDE
:10146000422003F07FFD1D2003F07CFDD12003F01E
:101470007FFD002003F076FD1A2003F073FD0920A4
:1014800003F070FDD22003F073FD012003F06AFD2C
:10149000222003F067FDC02003F06AFD102003F056
:1014A00061FD3B2003F05EFD002003F05BFD0220A8
:1014B00003F058FD112003F055FDC52003F058FD41
:1014C000032003F04FFDC82003F052FD002003F07D
:1014D00049FD252003F046FD212003F043FD0520B2
:1014E00003F040FD002003F03DFD0A2003F03AFD2B
:1014F000652003F037FD252003F034FD772003F04D
:1015000031FD502003F02EFD0F2003F02BFD0020B5
:1015100003F028FDF82003F02BFD012003F022FD4D
:10152000FE2003F025FD002003F01CFD022003F047
:1015300019FD202003F01CFD362003F019FD0820C2
:1015400000E02CE003F00EFD3A2003F011FD5520E1
:1015500003F008FD2B2003F00BFD002003F002FD3B
:10156000002003F0FFFC012003F0FCFC3F2003F00F
:10157000F9FC2A2003F0FCFC002003F0F3FC00201F
:1015800003F0F0FC012003F0EDFCDF2003F0EAFCA7
:10159000782004F01DF8292003F0EAFC4CE7A64867
:1015A000808845F21031884240F07C87ED2003F0BE
:1015B000DFFC012003F0D6FCFE2003F0D3FCEE207C
:1015C00003F0D6FCDE2003F0CDFC212003F0CAFCA2
:1015D000F12003F0CDFC012003F0C4FCDF2003F078
:1015E000C7FC102003F0BEFCC42003F0C1FC8F2018
:1015F00003F0B8FCC62003F0BBFC002003F0B2FCF3
:10160000E22003F0AFFCE22003F0ACFCE22003F0A8
:10161000A9FCBF2003F0ACFCAA2003F0A3FCB0207F
:1016200003F0A6FC0D2003F09DFC002003F09AFCC3
:101630000D2003F097FC002003F094FC112003F030
:1016400091FC002003F08EFC192003F08BFC00209D
:1016500003F088FC212003F085FC002003F082FCCD
:101660002D2003F07FFC002003F07CFC3D2003F0E4
:1016700079FC002003F076FC5D2003F073FC002071
:1016800003F070FC5D2003F06DFC002003F06AFCA9
:10169000B12003F06DFC802003F064FC002003F017
:1016A00061FC8B2003F05EFC002003F05BFC9620C5
:1016B00003F058FC002003F055FCB22003F058FC66
:1016C000002003F04FFC002003F04CFC022003F04C
:1016D00049FC002003F046FC032003F043FC0020FB
:1016E00003F040FCB32003F043FC002003F03AFC7D
:1016F000002003F037FC002003F034FC002003F04E
:1017000031FC002003F02EFC002003F02BFC002015
:1017100003F028FC002003F025FC002003F022FC4D
:10172000002003F01FFC002003F01CFC002003F04D
:1017300019FC002003F016FC002003F013FC00202D
:1017400003F010FC002003F00DFC002003F00AFC65
:10175000002003F007FC002003F004FC002003F04D
:1017600001FC002003F0FEFB002003F0FBFB002047
:1017700003F0F8FB002003F0F5FBB42003F0F8FBC6
:101780008B2003F0EFFB002003F0ECFB962003F02E
:10179000E9FB002003F0E6FBA12003F0E3FB0020BF
:1017A00003F0E0FBB52003F0E3FB022003F0DAFBDB
:1017B000002003F0D7FB032003F0D4FB002003F04C
:1017C000D1FB042003F0CEFB002003F0CBFBB620BE
:1017D00003F0CEFB002003F0C5FB002003F0C2FBAA
:1017E000B72003F0C5FB002003F0BCFB002003F092
:1017F000B9FB3F2003F0B6FB002003F0B3FB5E20F3
:1018000003F0B0FB002003F0ADFB642003F0AAFB63
:10181000002003F0A7FB8C2003F0A4FB002003F0C2
:10182000A1FBAC2003F09EFB002003F09BFBDC201F
:1018300003F098FB002001E00001002003F092FB80
:10184000702003F08FFB002003F08CFB902003F04E
:1018500089FB002003F086FBEB2003F083FB0020D4
:1018600003F080FBDC2003F07DFB002003F07AFB1B
:10187000B82003F07DFB002003F074FB002003F090
:1018800071FB002003F06EFB002003F06BFB0020D7
:1018900003F068FB002003F065FB002003F062FB0F
:1018A000002003F05FFBBA2003F062FB242003F06A
:1018B00059FB002003F056FB002003F053FB0020EF
:1018C00003F050FBC12003F053FB202003F04AFB40
:1018D000002003F047FB542003F044FB002003F0FA
:1018E00041FBFF2003F03EFB002003F03BFBC22046
:1018F00003F03EFB0A2003F035FB002003F032FB2F
:10190000042003F02FFB002003F02CFBC32003F086
:101910002FFB3C2003F026FB002003F023FB3A20A2
:1019200003F020FB002003F01DFB392003F01AFB1D
:10193000002003F017FB372003F014FB002003F016
:1019400011FB3C2003F00EFB002003F00BFB3620C4
:1019500003F008FB002003F005FB322003F002FB3C
:10196000002003F0FFFA2F2003F0FCFA002003F020
:10197000F9FA2C2003F0F6FA002003F0F3FA2920FC
:1019800003F0F0FA002003F0EDFA262003F0EAFA63
:10199000002003F0E7FA242003F0E4FA002003F02B
:1019A000E1FA242003F0DEFA002003F0DBFA232022
:1019B00003F0D8FA002003F0D5FA3C2003F0D2FA65
:1019C000002003F0CFFA362003F0CCFA002003F019
:1019D000C9FA322003F0C6FA002003F0C3FA2F2020
:1019E00003F0C0FA002003F0BDFA2C2003F0BAFA8D
:1019F000002003F0B7FA292003F0B4FA002003F026
:101A0000B1FA262003F0AEFA002003F0ABFA24204E
:101A100003F0A8FA002003F0A5FA242003F0A2FAAC
:101A2000002003F09FFA232003F09CFA002003F02B
:101A300099FAC42003F09CFA622003F093FA002084
:101A400003F090FA052003F08DFA002003F08AFAE3
:101A5000842003F087FA002003F084FAF02003F0DA
:101A600081FA002003F07EFA182003F07BFA0020B0
:101A700003F078FAA42003F075FA002003F072FA5C
:101A8000182003F06FFA002003F06CFA502003F0E6
:101A900069FA002003F066FA0C2003F063FA0020D4
:101AA00003F060FA172003F05DFA002003F05AFA01
:101AB000952003F057FA002003F054FAF32003F0C6
:101AC00051FA002003F04EFAE62003F04BFA002012
:101AD00003F048FAC52003F04BFA322003F042FA33
:101AE000002003F03FFA442003F03CFA002003F00A
:101AF00039FA652003F036FA002003F033FA762035
:101B000003F030FA002003F02DFA882003F02AFABF
:101B1000002003F027FAC62003F02AFA202003F061
:101B200021FA002003F01EFA172003F01BFA002010
:101B300003F018FA012003F015FA002003F012FA5E
:101B4000C72003F015FA002003F00CFA002003F080
:101B500009FA002003F006FA002003F003FAC82077
:101B600003F006FA002003F0FDF9002003F0FAF973
:101B7000002003F0F7F9002003F0F4F9C92003F086
:101B8000F7F9002003F0EEF9002003F0EBF9002054
:101B900003F0E8F9002003F0E5F9002003F0E2F992
:101BA000002003F0DFF9002003F0DCF9002003F04F
:101BB000D9F9002003F0D6F9002003F0D3F9002072
:101BC00003F0D0F9002003F0CDF9002003F0CAF9AA
:101BD000002003F0C7F9002003F0C4F9002003F04F
:101BE000C1F9E02003F0C4F9162003F0BBF900208E
:101BF00003F0B8F91C2003F0B5F9002003F0B2F9A6
:101C0000212003F0AFF9002003F0ACF9362003F0F7
:101C1000A9F9002003F0A6F9462003F0A3F900205B
:101C200003F0A0F9522003F09DF9002003F09AF987
:101C3000642003F097F9002003F094F97A2003F070
:101C400091F9002003F08EF98B2003F08BF900202E
:101C500003F088F9992003F085F9002003F082F958
:101C6000A82003F07FF9002003F07CF9B92003F0ED
:101C700079F9002003F076F9C42003F073F900200D
:101C800003F070F9CA2003F06DF9002003F06AF93F
:101C9000D22003F067F9002003F064F9D92003F0A3
:101CA00061F9002003F05EF9E02003F05BF9002009
:101CB00003F058F9F32003F055F9002003F052F92E
:101CC000E12003F055F9162003F04CF9002003F051
:101CD00049F91C2003F046F9002003F043F92220C3
:101CE00003F040F9002003F03DF9362003F03AF903
:101CF000002003F037F9452003F034F9002003F009
:101D000031F9522003F02EF9002003F02BF9642062
:101D100003F028F9002003F025F97A2003F022F9D6
:101D2000002003F01FF98B2003F01CF9002003F0C2
:101D300019F9992003F016F9002003F013F9A820EF
:101D400003F010F9002003F00DF9B92003F00AF9AF
:101D5000002003F007F9C42003F004F9002003F089
:101D600001F9CA2003F0FEF8002003F0FBF8D220AE
:101D700003F0F8F8002003F0F5F8D82003F0F2F8AB
:101D8000002003F0EFF8E02003F0ECF8002003F06F
:101D9000E9F8F32003F0E6F8002003F0E3F8E2208E
:101DA00003F0E6F8052003F0DDF8002003F0DAF890
:101DB0000B2003F0D7F8002003F0D4F81B2003F029
:101DC000D1F8002003F0CEF8342003F0CBF8002047
:101DD00003F0C8F8442003F0C5F8002003F0C2F86F
:101DE0004F2003F0BFF8002003F0BCF8612003F09F
:101DF000B9F8002003F0B6F8792003F0B3F800201A
:101E000003F0B0F8882003F0ADF8002003F0AAF842
:101E1000972003F0A7F8002003F0A4F8A62003F011
:101E2000A1F8002003F09EF8B72003F09BF80020F3
:101E300003F098F8C22003F095F8002003F092F820
:101E4000C72003F08FF8002003F08CF8D12003F0B6
:101E500089F8002003F086F8D62003F083F80020EC
:101E600003F080F8DD2003F07DF8002003F07AF81D
:101E7000F32003F077F8002003F074F8E32003F078
:101E800077F8052003F06EF8002003F06BF80A20C5
:101E900003F068F8002003F065F81C2003F062F8F6
:101EA000002003F05FF8332003F05CF8002003F01B
:101EB00059F8442003F056F8002003F053F850205E
:101EC00003F050F8002003F04DF8622003F04AF8C8
:101ED000002003F047F8782003F044F8002003F0D6
:101EE00041F8882003F03EF8002003F03BF89720EB
:101EF00003F038F8002003F035F8A62003F032F89C
:101F0000002003F02FF8B72003F02CF8002003F096
:101F100029F8C22003F026F8002003F023F8C72098
:101F200003F020F8002003F01DF8D12003F01AF888
:101F3000002003F017F8D52003F014F8002003F078
:101F400011F8DD2003F00EF8002003F00BF8F32069
:101F500003F008F8002003F005F8E42003F008F887
:101F6000012002F0FFFF002002F0FCFF012002F040
:101F7000F9FF002002F0F6FF022002F0F3FF00203C
:101F800002F0F0FF2A2002F0EDFF002002F0EAFF4D
:101F90003C2002F0E7FF002002F0E4FF4B2002F0BB
:101FA000E1FF002002F0DEFF5D2002F0DBFF0020F9
:101FB00002F0D8FF742002F0D5FF002002F0D2FF1B
:101FC000842002F0CFFF002002F0CCFF932002F02B
:101FD000C9FF002002F0C6FFA22002F0C3FF0020CC
:101FE00002F0C0FFB32002F0BDFF002002F0BAFFF4
:101FF000BE2002F0B7FF002002F0B4FFC42002F0C0
:10200000B1FF002002F0AEFFCD2002F0ABFF0020B8
:1020100002F0A8FFD32002F0A5FF002002F0A2FFEB
:10202000DD2002F09FFF002002F09CFFF32002F071
:1020300099FF002002F096FFE52002F099FF0020B2
:1020400002F090FF002002F08DFF002002F08AFFD6
:10205000002002F087FF022002F084FF002002F03F
:1020600081FF292002F07EFF002002F07BFF3C2050
:1020700002F078FF002002F075FF4B2002F072FFA3
:10208000002002F06FFF5D2002F06CFF002002F0E4
:1020900069FF742002F066FF002002F063FF8420D5
:1020A00002F060FF002002F05DFF932002F05AFF73
:1020B000002002F057FFA22002F054FF002002F09F
:1020C00051FFB32002F04EFF002002F04BFFBE2074
:1020D00002F048FF002002F045FFC42002F042FF5A
:1020E000002002F03FFFCD2002F03CFF002002F074
:1020F00039FFD32002F036FF002002F033FFDC204E
:1021000002F030FF002002F02DFFF32002F02AFF42
:10211000002002F027FFE62002F02AFF112002F043
:1021200021FF002002F01EFF342002F01BFF0020E0
:1021300002F018FF562002F015FF002002F012FFF7
:10214000762002F00FFF002002F00CFF772002F053
:1021500009FF002002F006FF662002F003FF0020C6
:1021600002F000FF882002F0FDFE002002F0FAFEDF
:10217000992002F0F7FE002002F0F4FEBB2002F0EE
:10218000F1FE002002F0EEFE992002F0EBFE0020AE
:1021900002F0E8FE662002F0E5FE002002F0E2FE1A
:1021A000552002F0DFFE002002F0DCFE552002F098
:1021B000D9FE002002F0D6FE452002F0D3FE00201A
:1021C00002F0D0FE432002F0CDFE002002F0CAFE55
:1021D000442002F0C7FE002002F0C4FEE72002F017
:1021E000C7FE322002F0BEFE002002F0BBFE5520EA
:1021F00002F0B8FE002002F0B5FE762002F0B2FE3A
:10220000002002F0AFFE662002F0ACFE002002F0DB
:10221000A9FE672002F0A6FE002002F0A3FE6720C0
:1022200002F0A0FE002002F09DFE872002F09AFE40
:10223000002002F097FE992002F094FE002002F0A8
:1022400091FEBB2002F08EFE002002F08BFE992052
:1022500002F088FE002002F085FE772002F082FE68
:10226000002002F07FFE442002F07CFE002002F0FD
:1022700079FE562002F076FE002002F073FE232045
:1022800002F070FE002002F06DFE332002F06AFEC4
:10229000002002F067FE452002F064FE002002F0FC
:1022A00061FEE82002F064FE002002F05BFE0020E8
:1022B00002F058FE992002F055FE002002F052FE76
:1022C000872002F04FFE002002F04CFE882002F032
:1022D00049FE002002F046FE772002F043FE002077
:1022E00002F040FE662002F03DFE002002F03AFEC1
:1022F000882002F037FE002002F034FEAA2002F00F
:1023000031FE002002F02EFEBB2002F02BFE00204A
:1023100002F028FE992002F025FE002002F022FEA5
:10232000662002F01FFE002002F01CFE552002F085
:1023300019FE002002F016FE552002F013FE0020C8
:1023400002F010FE442002F00DFE002002F00AFE12
:10235000442002F007FE002002F004FE552002F0A7
:1023600001FE002002F0FEFDE92002F001FEAA209D
:1023700002F0F8FD002002F0F5FD002002F0F2FD71
:10238000002002F0EFFD002002F0F2FDAA2002F092
:10239000E9FDCF2002F0ECFD002002F0E3FD00207B
:1023A00002F0E0FD002002F0DDFD002002F0DAFD89
:1023B000002002F0D7FD002002F0D4FD002002F042
:1023C000D1FD002002F0CEFD002002F0CBFD002068
:1023D00002F0C8FD002002F0C5FD002002F0C2FDA1
:1023E000002002F0BFFD002002F0BCFD002002F042
:1023F000B9FD002002F0B6FD002002F0B3FDF02090
:1024000002F0B6FD002002F0ADFD502002F0AAFD62
:10241000002002F0A7FD002002F0A4FD002002F041
:10242000A1FDF32002F0A4FD002002F09BFDF920A5
:1024300002F09EFD062002F095FD102002F092FDB4
:10244000292002F08FFD002002F08CFD3A2002F0DE
:102450008FFD552002F086FD112002F089FD6420D9
:1024600003F0B6F8292002F083FD352002F080FD4C
:10247000002002F077FD512002F07AFDFF2002F0EB
:1024800071FD532002F074FD2C2002F06BFD5520ED
:1024900002F06EFD822002F065FD2C2002F068FD46
:1024A00002F0E6B8FE48808845F2105188427DD19E
:1024B00055214FF4704002F06BFDAA214FF201004C
:1024C00002F066FD52214FF2020002F061FD082188
:1024D0004FF2030002F05CFD01214FF2040002F014
:1024E00057FD0D214FF4304002F052FD0D214BF20B
:1024F000010002F04DFD0D214BF2020002F048FDFB
:1025000034214FF4364002F043FD34214BF2016098
:1025100002F03EFD34214BF2026002F039FD0D2144
:102520004FF4314002F034FD0D214BF2011002F066
:102530002FFD0D214BF2021002F02AFD34214FF441
:10254000374002F025FD34214BF2017002F020FDEE
:1025500034214BF2027002F01BFD00214FF4324097
:1025600002F016FD00214BF2012002F011FD0021C6
:102570004BF2022002F00CFD24214FF4384002F00F
:1025800007FD24214BF6010002F002FD24214BF649
:10259000020002F0FDFC01214FF43F4002F0F8FC84
:1025A0000F214FF4334002F0F3FC00E0FDE30F2174
:1025B0004BF2013002F0ECFC0F214BF2023002F042
:1025C000E7FC34214FF4394002F0E2FC34214BF6B1
:1025D000011002F0DDFC34214BF6021002F0D8FCB1
:1025E00008214FF4354002F0D3FC08214BF2015092
:1025F00002F0CEFC08214BF2025002F0C9FC03218C
:102600004FF4424002F0C4FC24214FF43A4002F05F
:10261000BFFC24214BF6012002F0BAFC24214BF62A
:10262000022002F0B5FC00214FF43C4002F0B0FC67
:1026300078214BF6014002F0ABFC00214BF6024042
:1026400002F0A6FC00214FF43D4002F0A1FC7821ED
:102650004BF6015002F09CFC00214BF6025002F0B8
:1026600097FC00214FF43E4002F092FC64214BF6AF
:10267000016002F08DFC00214FF4514002F088FC13
:1026800033214DF2011002F083FC00214DF20210C3
:1026900002F07EFC34214DF2031002F079FC00219F
:1026A0004DF2041002F074FC3A214DF2051002F0D4
:1026B0006FFC00214DF2061002F06AFC4A214DF237
:1026C000071002F065FC00214DF2081002F060FCDA
:1026D0005C214DF2091002F05BFC00214DF20A1062
:1026E00002F056FC81214DF20B1002F051FC00214A
:1026F0004DF20C1002F04CFCA6214DF20D1002F030
:1027000047FC00214DF20E1002F042FCE5214DF293
:102710000F1002F03DFC01214DF2101002F038FCC8
:1027200013214DF2111002F033FC01214DF2121071
:1027300002F02EFC54214DF2131002F029FC01216D
:102740004DF2141002F024FC82214DF2151002F01B
:102750001FFC01214DF2161002F01AFCCA214DF2A5
:10276000171002F015FC02214DF2181002F010FCB7
:1027700000214DF2191002F00BFC02214DF21A104B
:1027800002F006FC01214DF21B1002F001FC0221B7
:102790004DF21C1002F0FCFB34214DF21D1002F032
:1027A000F7FB02214DF21E1002F0F2FB67214DF201
:1027B0001F1002F0EDFB02214DF2201002F0E8FBA9
:1027C00084214DF2211002F0E3FB02214DF2221090
:1027D00002F0DEFBA4214DF2231002F0D9FB02210E
:1027E0004DF2241002F0D4FBB7214DF2251002F077
:1027F000CFFB02214DF2261002F0CAFBCF214DF291
:10280000271002F0C5FB02214DF2281002F0C0FB98
:10281000DE214DF2291002F0BBFB02214DF22A10FD
:1028200002F0B6FBF2214DF22B1002F0B1FB0221B7
:102830004DF22C1002F0ACFBFE214DF22D1002F0F7
:10284000A7FB03214DF22E1002F0A2FB10214DF246
:102850002F1002F09DFB03214DF2301002F098FB87
:1028600033214DF2311002F093FB03214DF232106F
:1028700002F08EFB6D214DF2331002F089FB002136
:102880004FF4524002F084FB33214DF2012002F05C
:102890007FFB00214DF2022002F07AFB342101E09F
:1028A000000100204DF2032002F072FB00214DF2E6
:1028B000042002F06DFB3A214DF2052002F068FB86
:1028C00000214DF2062002F063FB4A214DF2072061
:1028D00002F05EFB00214DF2082002F059FB5C2162
:1028E0004DF2092002F054FB00214DF20A2002F0C3
:1028F0004FFB81214DF20B2002F04AFB00214DF2EB
:102900000C2002F045FBA6214DF20D2002F040FB09
:1029100000214DF20E2002F03BFBE5214DF20F208D
:1029200002F036FB01214DF2102002F031FB1321A1
:102930004DF2112002F02CFB01214DF2122002F089
:1029400027FB54214DF2132002F022FB01214DF20E
:10295000142002F01DFB82214DF2152002F018FB1D
:1029600001214DF2162002F013FBCA214DF217206F
:1029700002F00EFB02214DF2182002F009FB0021AB
:102980004DF2192002F004FB02214DF21A2002F050
:10299000FFFA01214DF21B2002F0FAFA02214DF25A
:1029A0001C2002F0F5FA34214DF21D2002F0F0FA5D
:1029B00002214DF21E2002F0EBFA67214DF21F209A
:1029C00002F0E6FA02214DF2202002F0E1FA842121
:1029D0004DF2212002F0DCFA02214DF2222002F019
:1029E000D7FAA4214DF2232002F0D2FA02214DF2AF
:1029F000242002F0CDFAB7214DF2252002F0C8FACA
:102A000002214DF2262002F0C3FACF214DF22720F9
:102A100002F0BEFA02214DF2282002F0B9FADE21BE
:102A20004DF2292002F0B4FA02214DF22A2002F0E0
:102A3000AFFAF2214DF22B2002F0AAFA02214DF258
:102A40002C2002F0A5FAFE214DF22D2002F0A0FA72
:102A500003214DF22E2002F09BFA10214DF22F207F
:102A600002F096FA03214DF2302002F091FA332160
:102A70004DF2312002F08CFA03214DF2322002F0A7
:102A800087FA6D214DF2332002F082FA00214FF4D3
:102A9000534002F07DFA33214DF2013002F078FA12
:102AA00000214DF2023002F073FA34214DF203306E
:102AB00002F06EFA00214DF2043002F069FA3A2178
:102AC0004DF2053002F064FA00214DF2063002F0BA
:102AD0005FFA4A214DF2073002F05AFA00214DF216
:102AE000083002F055FA5C214DF2093002F050FA3C
:102AF00000214DF20A3002F04BFA81214DF20B30E9
:102B000002F046FA00214DF20C3002F041FAA62103
:102B10004DF20D3002F03CFA00214DF20E3002F081
:102B200037FAE5214DF20F3002F032FA01214DF271
:102B3000103002F02DFA13214DF2113002F028FA74
:102B400001214DF2123002F023FA54214DF21330DC
:102B500002F01EFA01214DF2143002F019FA82211E
:102B60004DF2153002F014FA01214DF2163002F048
:102B70000FFACA214DF2173002F00AFA02214DF283
:102B8000183002F005FA00214DF2193002F000FA77
:102B900002214DF21A3002F0FBF901214DF21B30F7
:102BA00002F0F6F902214DF21C3002F0F1F9342165
:102BB0004DF21D3002F0ECF902214DF21E3002F010
:102BC000E7F967214DF21F3002F0E2F902214DF2E0
:102BD000203002F0DDF984214DF2213002F0D8F9E5
:102BE00002214DF2223002F0D3F9A4214DF223301C
:102BF00002F0CEF902214DF2243002F0C9F9B721DA
:102C00004DF2253002F0C4F902214DF2263002F0D7
:102C1000BFF9CF214DF2273002F0BAF902214DF26F
:102C2000283002F0B5F9DE214DF2293002F0B0F97A
:102C300002214DF22A3002F0ABF9F2214DF22B3095
:102C400002F0A6F902214DF22C3002F0A1F9FE218A
:102C50004DF22D3002F09CF903214DF22E3002F09E
:102C600097F910214DF22F3002F092F903214DF225
:102C7000303002F08DF933214DF2313002F088F915
:102C800003214DF2323002F083F96D214DF23330E1
:102C900002F07EF900214FF4544002F079F933211B
:102CA0004DF2014002F074F900214DF2024002F0B1
:102CB0006FF934214DF2034002F06AF900214DF220
:102CC000044002F065F93A214DF2054002F060F946
:102CD00000214DF2064002F05BF94A214DF2074017
:102CE00002F056F900214DF2084002F051F95C2142
:102CF0004DF2094002F04CF900214DF20A4002F079
:102D000047F981214DF20B4002F042F900214DF2CA
:102D10000C4002F03DF9A6214DF20D4002F038F9C9
:102D200000214DF20E4002F033F9E5214DF20F4043
:102D300002F02EF901214DF2104002F029F9132181
:102D40004DF2114002F024F901214DF2124002F03F
:102D50001FF954214DF2134002F01AF901214DF2EE
:102D6000144002F015F982214DF2154002F010F9DD
:102D700001214DF2164002F00BF9CA214DF2174025
:102D800002F006F902214DF2184002F001F900218B
:102D90004DF2194002F0FCF802214DF21A4002F007
:102DA000F7F801214DF21B4000E006E302F0F0F8D5
:102DB00002214DF21C4002F0EBF834214DF21D408F
:102DC00002F0E6F802214DF21E4002F0E1F8672120
:102DD0004DF21F4002F0DCF802214DF2204002F0DB
:102DE000D7F884214DF2214002F0D2F802214DF2B1
:102DF000224002F0CDF8A4214DF2234002F0C8F8A1
:102E000002214DF2244002F0C3F8B7214DF22540D3
:102E100002F0BEF802214DF2264002F0B9F8CF21AF
:102E20004DF2274002F0B4F802214DF2284002F0A2
:102E3000AFF8DE214DF2294002F0AAF802214DF24E
:102E40002A4002F0A5F8F2214DF22B4002F0A0F842
:102E500002214DF22C4002F09BF8FE214DF22D4054
:102E600002F096F803214DF22E4002F091F8102165
:102E70004DF22F4002F08CF803214DF2304002F069
:102E800087F833214DF2314002F082F803214DF2F0
:102E9000324002F07DF86D214DF2334002F078F8B7
:102EA00000214FF4554002F073F833214DF20150E8
:102EB00002F06EF800214DF2025002F069F8342160
:102EC0004DF2035002F064F800214DF2045002F07C
:102ED0005FF83A214DF2055002F05AF800214DF208
:102EE000065002F055F84A214DF2075002F050F812
:102EF00000214DF2085002F04BF85C214DF20950D0
:102F000002F046F800214DF20A5002F041F881210A
:102F10004DF20B5002F03CF800214DF20C5002F043
:102F200037F8A6214DF20D5002F032F800214DF293
:102F30000E5002F02DF8E5214DF20F5002F028F866
:102F400001214DF2105002F023F813214DF21150DF
:102F500002F01EF801214DF2125002F019F854212E
:102F60004DF2135002F014F801214DF2145002F00A
:102F70000FF882214DF2155002F00AF801214DF2AE
:102F8000165002F005F8CA214DF2175002F000F871
:102F900002214DF2185001F0FBFF00214DF21950B3
:102FA00001F0F6FF02214DF21A5001F0F1FF01216C
:102FB0004DF21B5001F0ECFF02214DF21C5001F0CC
:102FC000E7FF34214DF21D5001F0E2FF02214DF2E6
:102FD0001E5001F0DDFF67214DF21F5001F0D8FFB8
:102FE00002214DF2205001F0D3FF84214DF22150F7
:102FF00001F0CEFF02214DF2225001F0C9FFA421C1
:103000004DF2235001F0C4FF02214DF2245001F093
:10301000BFFFB7214DF2255001F0BAFF02214DF25A
:10302000265001F0B5FFCF214DF2275001F0B0FF3F
:1030300002214DF2285001F0ABFFDE214DF2295064
:1030400001F0A6FF02214DF22A5001F0A1FFF2216A
:103050004DF22B5001F09CFF02214DF22C5001F05B
:1030600097FFFE214DF22D5001F092FF03214DF20A
:103070002E5001F08DFF10214DF22F5001F088FFEE
:1030800003214DF2305001F083FF33214DF23150D6
:1030900001F07EFF03214DF2325001F079FF6D21E6
:1030A0004DF2335001F074FF00214FF4564001F00F
:1030B0006FFF33214DF2016001F06AFF00214DF2F4
:1030C000026001F065FF34214DF2036001F060FF02
:1030D00000214DF2046001F05BFF3A214DF20560E2
:1030E00001F056FF00214DF2066001F051FF4A2128
:1030F0004DF2076001F04CFF00214DF2086001F035
:1031000047FF5C214DF2096001F042FF00214DF2C2
:103110000A6001F03DFF81214DF20B6001F038FFA4
:1031200000214DF20C6001F033FFA6214DF20D603D
:1031300001F02EFF00214DF20E6001F029FFE52184
:103140004DF20F6001F024FF01214DF2106001F0FB
:103150001FFF13214DF2116001F01AFF01214DF202
:10316000126001F015FF54214DF2136001F010FFC1
:1031700001214DF2146001F00BFF82214DF2156028
:1031800001F006FF01214DF2166001F001FFCA2196
:103190004DF2176001F0FCFE02214DF2186001F0C3
:1031A000F7FE00214DF2196001F0F2FE02214DF20E
:1031B0001A6001F0EDFE01214DF21B6001F0E8FE06
:1031C00002214DF21C6001F0E3FE34214DF21D603E
:1031D00001F0DEFE02214DF21E6001F0D9FE6721F2
:1031E0004DF21F6001F0D4FE02214DF2206001F08B
:1031F000CFFE84214DF2216001F0CAFE02214DF282
:10320000226001F0C5FEA4214DF2236001F0C0FE52
:1032100002214DF2246001F0BBFEB7214DF2256082
:1032200001F0B6FE02214DF2266001F0B1FECF2181
:103230004DF2276001F0ACFE02214DF2286001F052
:10324000A7FEDE214DF2296001F0A2FE02214DF21F
:103250002A6001F09DFEF2214DF22B6001F098FEF4
:1032600002214DF22C6001F093FEFE214DF22D6003
:1032700001F08EFE03214DF22E6001F089FE102137
:103280004DF22F6001F084FE03214DF2306001F019
:103290007FFE33214DF2316001F07AFE03214DF2C1
:1032A000326001F075FE6D214DF2336001F070FE69
:1032B00055214FF4704001F06BFEAA214FF201003E
:1032C00001F066FE52214FF2020001F061FE08217A
:1032D0004FF2030001F05CFE00214FF2040001F008
:1032E00057FECC214FF4314001F052FE00214BF249
:1032F000011001F04DFE05214FF4364001F048FE6B
:1033000070214FF4374001F043FE70214BF2017001
:1033100001F03EFE01214FF4384001F039FE032157
:103320004BF6010001F034FE03214BF6020001F0E0
:103330002FFE03214BF6030001F02AFE02214FF479
:103340003C4001F025FE00214BF6014001F020FE3B
:1033500000214BF6024001F01BFED0214FF4494002
:1033600001F016FE02214CF6011001F011FE502171
:103370004CF6021001F00CFE50214CF6031001F047
:1033800007FE50214CF6041001F002FE00214FF41C
:10339000545001F0FDFD55214FF4685001F0F8FD47
:1033A0004FF4885001F0E4FD782002F037F94FF433
:1033B000245001F0DDFD01F05BB9FE48808849F240
:1033C000253188427ED147F6F001E52001F0E0FD8D
:1033D0004FF48071012001F0DBFD4FF4E061022029
:1033E00001F0D6FD41F23001032001F0D1FD0021B2
:1033F000042001F0CDFD40F20221082001F0C8FDBB
:103400000021092001F0C4FD00210A2001F0C0FDC7
:1034100000210C2001F0BCFD00210D2001F0B8FDC1
:1034200000210F2001F0B4FD0021102001F0B0FDBB
:103430000721112001F0ACFD0021122001F0A8FDB0
:103440000021132001F0A4FD0021072001F0A0FDC0
:1034500041F29061102001F09BFD40F227211120E4
:1034600001F096FD9D21122001F092FD4FF4C8510C
:10347000132001F08DFD2521292001F089FD0D216A
:103480002B2001F085FD0721302001F081FD40F265
:103490000331312001F07CFD0321322001F078FD61
:1034A00040F20621352001F073FD0821362001F09D
:1034B0006FFD40F20641372001F06AFD4FF4417183
:1034C000382000E057E001F063FD0721392001F0CA
:1034D0005FFD40F202613C2001F05AFD08213D20D1
:1034E00001F056FD0021502001F052FDEF21512046
:1034F00001F04EFD0021522001F04AFD40F23F1143
:10350000532001F045FD4FF42741602001F040FDBC
:103510000121612001F03CFD00216A2001F038FD0D
:103520000021802001F034FD0021812001F030FDD8
:103530000021822001F02CFD0021832001F028FDD4
:103540000021842001F024FD0021852001F020FDD0
:103550001021902001F01CFD4FF4C061922001F079
:1035600017FD40F23311072001F012FD2221002047
:1035700001F00EFD1FE78F48808849F2283188420C
:103580007ED141F28F01EC2001F002FD41F23421A5
:10359000EF2001F0FDFC4FF48071012001F0F8FCF8
:1035A0004FF4E061022001F0F3FC41F2300103200E
:1035B00001F0EEFC0021042001F0EAFC40F20221BF
:1035C000082001F0E5FC0021092001F0E1FC0021C8
:1035D0000A2001F0DDFC01210C2001F0D9FC0021C2
:1035E0000D2001F0D5FC00210F2001F0D1FC0021BD
:1035F000102001F0CDFC0721112001F0C9FC0021B1
:10360000122001F0C5FC0021132001F0C1FC0121B2
:10361000072001F0BDFC322001F0DAFF41F29041B9
:10362000102001F0B5FC40F22721112001F0B0FC80
:10363000322001F0CDFF8A21122001F0A9FC3220B6
:1036400001F0C6FF4FF4D051132001F0A1FC062178
:10365000292001F09DFC0D212B2001F099FC322046
:1036600001F0B6FF0021202001F092FC0021212072
:1036700001F08EFC322001F0ABFF0021302000E091
:1036800074E001F085FC40F20461312001F080FC1F
:1036900040F20531322001F07BFC0021352001F0A1
:1036A00077FC40F60941362001F072FC4FF40171BD
:1036B000372001F06DFC40F20131382001F068FC48
:1036C00040F20771392001F063FC00213C2001F039
:1036D0005FFC40F60A213D2001F05AFC322001F047
:1036E00077FF0021502001F053FCEF21512001F021
:1036F0004FFC0021522001F04BFC40F23F115320BF
:1037000001F046FC4FF42741602001F041FC01210B
:10371000612001F03DFC00216A2001F039FC00210C
:10372000802001F035FC0021812001F031FC0021D6
:10373000822001F02DFC0021832001F029FC0021D2
:10374000842001F025FC0021852001F021FC1021BE
:10375000902001F01DFC4FF4C061922001F018FC94
:1037600040F23311072001F013FC24E61148808851
:1037700049F2203188427DD10021084601F008FC41
:103780004FF48071012001F003FC4FF4E06102204E
:1037900001F0FEFB41F23001032001F0F9FB0021B2
:1037A000042001F0F5FB40F20221082001F0F0FBBB
:1037B000002101E000010020092001F0E9FB0021C7
:1037C0000A2001F0E5FB01210C2001F0E1FB0021C2
:1037D0000D2001F0DDFB00210F2001F0D9FB32208C
:1037E00001F0F6FE40F20111072001F0D1FB32207A
:1037F00001F0EEFE4FF48651102001F0C9FB0721C5
:10380000112001F0C5FB4FF48871122001F0C0FBBC
:103810004FF43061132001F0BBFB0021292001F09F
:10382000B7FB44F210012B2001F0B2FB0021502025
:1038300001F0AEFBEF21512001F0AAFB0021522044
:1038400001F0A6FB40F23F11532001F0A1FB4FF421
:103850001C51602001F09CFB0121612001F098FBCC
:1038600000216A2001F094FB0021802001F090FBF0
:10387000002100E031E0812001F08AFB002182205C
:1038800001F086FB0021832001F082FB00218420CF
:1038900001F07EFB0021852001F07AFB10219020B1
:1038A00001F076FB0021922001F072FB01219320B0
:1038B00001F06EFB4FF48871952001F069FB002147
:1038C000972001F065FB0021982001F061FB40F298
:1038D0007311072001F05CFB6DE5FE48808849F21A
:1038E000313188427DD141F21401E72001F050FBD3
:1038F0004FF48071012001F04BFB4FF40071022066
:1039000001F046FB41F23801032001F041FB40F297
:103910000221082001F03CFB0021092001F038FBC6
:1039200000210A2001F034FB00210C2001F030FBC3
:1039300000210D2001F02CFB00210F2001F028FBBD
:103940000021102001F024FB0721112001F020FBB1
:103950000021122001F01CFB0021132001F018FBB4
:10396000C82001F035FE41F29061102001F010FBFB
:1039700040F22721112001F00BFB322001F028FE3C
:103980000C21122001F004FB322001F021FE4FF443
:103990000061132001F0FCFA1121292001F0F8FA4E
:1039A0000B212B2001F0F4FA322001F011FE00214E
:1039B000202001F0EDFA40F23F11212001F0E8FA59
:1039C0000021302001F0E4FA4FF48371312001F03E
:1039D000DFFA0021322001F0DBFA4FF401713520CB
:1039E00000E064E001F0D4FA41F20A61362001F00F
:1039F000CFFA40F20771372001F0CAFA4FF4837111
:103A0000382001F0C5FA40F20771392001F0C0FA00
:103A100040F202413C2001F0BBFA40F60F413D204C
:103A200001F0B6FA0021502001F0B2FAEF21512046
:103A300001F0AEFA0021522001F0AAFA40F23F1143
:103A4000532001F0A5FA4FF41C51602001F0A0FAB8
:103A50000121612001F09CFA00216A2001F098FA0E
:103A60000021802001F094FA0021812001F090FAD9
:103A70000021822001F08CFA0021832001F088FAD5
:103A80000021842001F084FA0021852001F080FAD1
:103A90001021902001F07CFA4FF4C061922001F0D7
:103AA00077FA40F23311072001F072FA83E4894873
:103AB000808845F2084188427ED14FF48071012010
:103AC00001F066FA4FF4E061022001F061FA41F280
:103AD0003001032001F05CFA0021042001F058FAC3
:103AE00040F20721082001F053FA0021092001F0DB
:103AF0004FFA00210A2001F04BFA00210C2001F0BE
:103B000047FA00210D2001F043FA00210F2001F0B7
:103B10003FFA142001F05CFD41F2B061102001F089
:103B200037FA0121112001F033FA0121172001F0A9
:103B30002FFA4FF49C71122001F02AFA4FF4006121
:103B4000132001F025FA0921292001F021FA092189
:103B50002A2001F01DFA0021A42001F019FA002109
:103B6000502001F015FAEF21512001F011FA002147
:103B7000522001F00DFA40F23F11532001F008FAF3
:103B80004FF41C51602001F003FA0121612001F083
:103B9000FFF900216A2001F0FBF90021802001F0EB
:103BA000F7F90021812001F0F3F90021822001F0D2
:103BB000EFF90021832000E023E001F0E9F9002182
:103BC000842001F0E5F90021852001F0E1F91321BD
:103BD000902001F0DDF90021922001F0D9F90321B4
:103BE000932001F0D5F94FF48871952001F0D0F9B8
:103BF00040F27311072001F0CBF9322001F0E8FC0C
:103C0000B8E43448808841F2055188427ED10021D1
:103C1000072001F0BDF9322001F0DAFC4FF48E717B
:103C2000122001F0B5F90121A42001F0B1F90F2112
:103C3000082001F0ADF908210A2001F0A9F90821B6
:103C40000D2001F0A5F940F20771302001F0A0F934
:103C50000721312001F09CF940F20361322001F08C
:103C600097F94FF4E061332001F092F940F202211C
:103C7000342001F08DF90221352001F089F941F657
:103C80000F71362001F084F940F20771372001F0FE
:103C90007FF90021382001F07BF90021392001F063
:103CA00077F940F207713A2001F072F900213B20C8
:103CB00001F06EF907213C2001F06AF900213D2056
:103CC00001F066F9322001F083FC0121072001F0A8
:103CD0005FF901E0000100200121172001F058F9EF
:103CE000322001F075FC4FF4BD51102001F050F965
:103CF00040F21721112001F04BF94FF48F7112207F
:103D000001F046F94FF47061132000E097E001F0F4
:103D10003FF900212A2001F03BF90A21292001F076
:103D200037F94FF49F71122001F032F90021502031
:103D300001F02EF9EF21512001F02AF90021522043
:103D400001F026F940F23F11532001F021F94FF420
:103D50001C51602001F01CF90121612001F018F9CB
:103D600000216A2001F014F90021802001F010F9EF
:103D70000021812001F00CF90021822001F008F9D6
:103D80000021832001F004F90021842001F000F9D2
:103D90000021852001F0FCF81321902001F0F8F8B3
:103DA0004FF44071922001F0F3F80521932001F0C7
:103DB000EFF80021952001F0EBF80021972001F0A9
:103DC000E7F80021982001F0E3F84FF4807101201A
:103DD00001F0DEF84FF4E061022001F0D9F841F281
:103DE0003801032001F0D4F80021042001F0D0F8BC
:103DF00000210C2001F0CCF800210F2001F0C8F8C0
:103E00000021202001F0C4F80021212001F0C0F899
:103E10002121072001F0BCF8142001F0D9FB612119
:103E2000072001F0B5F8142001F0D2FB40F2731125
:103E3000072001F0ADF8142001F0CAFB95E4FE481C
:103E400080884BF2055188427ED10021084601F05E
:103E50009FF80021084601F09BF80021084601F078
:103E600097F80021084601F093F80121A42001F001
:103E70008FF8142001F0ACFB4FF41C51602001F0CE
:103E800087F840F20221082001F082F84FF4057112
:103E9000302001F07DF843F21571312001F078F8FF
:103EA00040F20461322001F073F840F616613320CD
:103EB00001F06EF842F21121342001F069F84FF45C
:103EC000A851352001F064F848F20751362001F07E
:103ED0005FF841F20741372001F05AF841F20341FF
:103EE000382001F055F82021392001F051F81A212D
:103EF000902001F04DF80021102001F049F8072131
:103F0000112001F045F80021122001F041F80021B4
:103F1000132001F03DF8142001F05AFB4FF4E66144
:103F2000102001F035F840F23711112001F030F87F
:103F3000142001F04DFB4FF4DC71122001F028F841
:103F4000142001F045FB00E083E04FF47061132082
:103F500001F01EF880212A2001F01AF848212920BA
:103F600001F016F8142001F033FB4FF480710120AA
:103F700001F00EF84FF4E061022001F009F841F27F
:103F80003801032001F004F840F20221082000F07B
:103F9000FFFF00210A2000F0FBFF00210C2000F0B1
:103FA000F7FF00210D2000F0F3FF30210E2000F07C
:103FB000EFFF0021502000F0EBFFEF21512000F037
:103FC000E7FF0021522000F0E3FF40F23F115320B1
:103FD00000F0DEFF4FF41C51602000F0D9FF0121FA
:103FE000612000F0D5FF00216A2000F0D1FF1121EF
:103FF000902000F0CDFF4FF4C061922000F0C8FF88
:1040000040F20241932000F0C3FF0221942000F00F
:10401000BFFF142001F0DCFA0121072000F0B8FFF7
:10402000142001F0D5FA6121072000F0B1FF40F221
:104030007311072000F0ACFF0021202000F0A8FF42
:104040000021212000F0A4FF2221002000F0A0FF89
:104050000EE3794880884CF2055188427ED10021D8
:10406000084600F095FF0021084600F091FF14205B
:1040700001F0AEFA0021084600F08AFF0021084650
:1040800000F086FF0021084600F082FF002108466C
:1040900000F07EFF0121A42000F07AFF142001F03F
:1040A00097FA4FF41C51602000F072FF40F60601B1
:1040B000082000F06DFF40F20371302000F068FF2F
:1040C0000121312000F064FF0421322000F060FF64
:1040D0004FF48171332000F05BFF4FF440713420C6
:1040E00000F056FF40F20311352000F051FF1F2170
:1040F000362000F04DFF40F20371372000F048FFFA
:104100000121382000F044FF0421392000F040FF55
:104110001521902000F03CFF4FF48261102000F048
:1041200037FF40F24721112000F032FF4FF4DE71DB
:10413000122000F02DFF4FF46061132000F028FFE3
:10414000782001F045FA4FF48071012000F020FF43
:104150004FF40071022000F01BFF00E050E041F23C
:104160003001032000F014FF08210A2000F010FFA6
:1041700000210C2000F00CFF20210E2000F008FF91
:1041800000210F2000F004FF0021202000F000FF9C
:104190000021212000F0FCFE3D212A2000F0F8FE45
:1041A000142001F015FA2D21292000F0F1FE002144
:1041B000502000F0EDFE4DF2EF01512000F0E8FE3E
:1041C0000021522000F0E4FE40F23F11532000F0A5
:1041D000DFFE0021612000F0DBFE00216A2000F0FC
:1041E000D7FE4FF44071922000F0D2FE05219320BB
:1041F00000F0CEFE4FF48071072000F0C9FE37E2D8
:104200000D48808844F2315188427CD10121002040
:1042100000F0BEFE0A2001F0DBF941F22861102017
:1042200000F0B6FE0E21122000F0B2FE40F6392159
:10423000132000F0ADFE01E0000100200A2001F093
:10424000C7F94021112000F0A3FE5021152000F0F5
:104250009FFE0A2001F0BCF91E21122000F098FEFA
:104260000A2001F0B5F94FF4B151102000F090FE92
:1042700042F63921132000F08BFE0A2001F0A8F944
:104280004FF48071012000F083FE4FF44071022052
:1042900000F07EFE41F23801032000F079FE40F28A
:1042A0000221082000F074FE08210A2000F070FEB0
:1042B0000021302000F06CFE40F20241312000F07D
:1042C00067FE4FF48371322000F062FE40F203512A
:1042D000332000F05DFE4FF48271342000F058FE70
:1042E00040F20131352000F053FE40F207713620D4
:1042F00000F04EFE40F20531372000F049FE4FF449
:104300000271382000E040E000F042FE40F60B7100
:10431000392000F03DFE0221412000F039FE4FF42B
:104320001C51602000F034FE0121612000F030FEBD
:104330004FF40471902000F02BFE4FF48571922011
:1043400000F026FE0421932000F022FE4FF480713D
:10435000A02000F01DFE0121072000F019FE212100
:10436000072000F015FE2321072000F011FE332165
:10437000072000F00DFE40F23311072000F008FE88
:104380000021A02000F004FE72E1BF48808844F2C2
:10439000355188427ED13021152000F0F9FD1021E1
:1043A0009A2000F0F5FD2021112000F0F1FD43F2EC
:1043B0002841102000F0ECFD0221122000F0E8FD61
:1043C00041F23801132000F0E3FD282001F000F94C
:1043D0001221084600F0DCFD282001F0F9F843F234
:1043E0002041102000F0D4FD43F23801132000F0EA
:1043F000CFFD462001F0ECF80021302000F0C8FD90
:1044000040F20241312000F0C3FD40F2073132207A
:1044100000F0BEFD4FF44171332000F0B9FD0421DE
:10442000342000F0B5FD40F20141352000F0B0FD30
:1044300040F20771362000F0ABFD40F20531372025
:1044400000F0A6FD4FF4C261382000F0A1FD4FF44A
:10445000C261392000F09CFD4FF48071012000F012
:1044600097FD4FF44071022000F092FD41F23001BF
:10447000032000F08DFD40F60801082000F088FDC3
:1044800008210A2000F084FD4FF41C51602000F048
:104490007FFD00E031E00121612000F079FD4FF463
:1044A0009F71902000F074FD4FF48071922000F015
:1044B0006FFD4FF48071932000F06AFD4FF440517E
:1044C000A02000F065FD1021A32000F061FD012176
:1044D000072000F05DFD2121072000F059FD232178
:1044E000072000F055FD3321072000F051FD40F278
:1044F0003311072000F04CFDBAE06348808841F694
:1045000063118842F8D1E22000F032FD232000F050
:1045100029FD022000F026FD042000F023FD642088
:1045200001F07CF8E02000F023FD012000F01AFDEE
:104530000A2001F04DF8E02000F01AFD032000F001
:1045400011FD0C2001F044F8012000F011FD0A20BB
:1045500001F03EF8E62000F00BFD032000F002FD24
:10456000FF2000F0FFFCFF2000F0FCFCB02000F07A
:10457000FFFC202000F0F6FC002000F0F3FC0320FC
:1045800000F0F0FC40F21F3000F0ECFC012000F0E5
:10459000E9FC40F2DF1000F0E5FC002000F0E2FC56
:1045A000B42000F0E5FC042000F0DCFC40F21F40E9
:1045B00000F0D8FC002000F0D5FCD22000F0D2FCA6
:1045C000002000F0CFFC002000F0CCFC002000F028
:1045D000C9FC002000F0C6FCB62000F0C9FC022097
:1045E00000F0C0FC4FF4037000F0BCFC002000F0B1
:1045F000B9FC222000F0B6FC092000F0B3FC00203A
:1046000000F0B0FC002000F0ADFCF02000F0B0FCA9
:10461000032000F0A7FC292000F0AAFCD02000F025
:10462000A7FC002000F09EFCBE2000F0A1FC0520AD
:1046300000F098FCFE2000F095FC012000F092FCB8
:10464000FF2000F08FFC002000F08CFCB82000F070
:104650008FFC0F2000F086FC012000F083FCBA20C4
:1046600000F086FC012000F07DFC642000F032F8B0
:104670000020FCF7B9FA0120044908604FF6FF70EA
:10468000FCF77CFA1FB000BD0001002080812142B0
:1046900010B50246012000E050430B00A1F10104D7
:1046A000E1B2F9D110BD000008B5034800880090C0
:1046B000BDF8000008BD00000008006C10B50446FD
:1046C000204600F055FC052000F0A8FFFFF7ECFFA6
:1046D00010BD00002DE9F0470446BE2000F048FC64
:1046E000052000F03FFC204601F0C3F907464FF0DB
:1046F00066320C4B01F0D0F9054601F08DF91FFA36
:1047000080F9484600F02EFC012000F02BFCFF2031
:1047100000F028FC002000F025FC002000F022FC26
:10472000BDE8F0876666044070B5044600230026A5
:10473000B748807901280BD1B548808846F6040136
:10474000884205D0B248808841F66311884208D17A
:10475000AF488079F0B9AE48808841F6631188424D
:1047600018D1082C15D2DFE804F00406080A0C0E54
:10477000101206240DE007240BE0042409E00524B0
:1047800007E0012405E0002403E0032401E0022403
:1047900000BF00BF9E48808849F24131884217D04F
:1047A0009B48808846F60401884211D0984880884A
:1047B00045F2103188420BD09548808845F210515F
:1047C000884205D09248808841F6631188427DD1A5
:1047D000082C1CD2DFE804F00406090C0F1215188F
:1047E00000BF14E043F0800311E043F040030EE00B
:1047F00043F0C0030BE043F0200308E043F0600304
:1048000005E043F0A00302E043F0E00300BF00BF77
:104810007F48808845F21051884202D14FF45856A3
:1048200000E036267A48808845F2103188420DD063
:104830007748808845F21051884207D074488088B4
:1048400041F66311884201D043F008037048808824
:1048500046F60401884201D143F00203194630466E
:1048600000F096FB6A48808841F6631188421DD0AB
:1048700003F0200068B1664800886549498888428D
:1048800014DA6348058840886149088008464580F5
:104890000CE05F4800885E494988884206DD5C4834
:1048A000058840885A4908800846458058488088CD
:1048B00045F21051884254D15549488900F058FBBF
:1048C000002000F04FFB5249498900E078E0491C84
:1048D00088B200F04DFB002000F044FB4C494989B0
:1048E000891C88B200F044FB49490988491EC1F37C
:1048F0000F2000F037FB46494989C91C88B200F0F7
:1049000037FB43490978491EC8B200F02BFB4049E8
:10491000888900F02DFB002000F024FB3C498989A8
:10492000491C88B200F024FB002000F01BFB384932
:104930008989891C88B200F01BFB35494988491ECA
:10494000C1F30F2000F00EFB31498989C91C88B2E0
:1049500000F00EFB2E498978491EC8B200F002FB18
:1049600055E02B49488900F003FB002000F0FAFADB
:10497000002000F0F7FA26490988491EC1F30F20EC
:1049800000F0F0FA22490978491EC8B200F0EAFAAC
:104990001F49888900F0ECFA002000F0E3FA0020BB
:1049A00000F0E0FA1A494988491EC1F30F2000F0CF
:1049B000D9FA17498978491EC8B200F0D3FA26E01F
:1049C000082C1CD2DFE804F004070A0D0F1215189A
:1049D00043F0300313E043F0100310E043F02003F2
:1049E0000DE000BF0BE043F0380308E043F028037C
:1049F00005E043F0180302E043F0080300BF00BFE6
:104A0000032643F480531946304600F0C1FA70BDC6
:104A10000001002010B503460C466748808849F223
:104A20004131884205D06448808845F2103188427F
:104A300014D16149488900F09BFA181200F092FAEB
:104A4000D8B200F08FFA5C49888900F091FA201200
:104A500000F088FAE0B200F085FAABE056488088B2
:104A600046F6040188421DD153488079012804D1BB
:104A700051480088401EC01A83B24F49488900F04F
:104A800077FA181200F06EFAD8B200F06BFA4A49C1
:104A9000888900F06DFA201200F064FAE0B200F0AC
:104AA00061FA87E04448808841F66311884247D123
:104AB00041488079A8B940480088401EC01A83B296
:104AC0003D49488900F054FA002000F04BFA0020DC
:104AD00000F048FA181200F045FAD8B200F042FA95
:104AE00016E03549488900F043FA181200F03AFA06
:104AF000D8B200F037FA30490988491EC1F30F20B7
:104B000000F030FA2C490978491EC8B200F02AFAA0
:104B10002949888900F02CFA201200F023FAE0B22B
:104B200000F020FA24494988491EC1F30F2000F003
:104B300019FA21498978491EC8B200F013FA39E000
:104B40001D48808845F21051884220D11A49488971
:104B500000F00EFA181200F005FA17494989491CAD
:104B600088B200F005FAD8B200F0FCF91249888941
:104B700000F0FEF9201200F0F5F90F498989491C6F
:104B800088B200F0F5F9E0B200F0ECF912E00A4862
:104B90008079012804D108480088401EC01A83B2D9
:104BA00005494889194600F0F3F9034988892146E7
:104BB00000F0EEF910BD0000000100202DE9F84FD3
:104BC00080460F4616461C46BB462046E31704EBBC
:104BD0005373DB1021464FEAE47C04EB5C7C4FEA24
:104BE000EC0CA4EBCC0CBCF1000F02D04FF0010C8C
:104BF00001E04FF0000C6344224604EBD27C4FEA04
:104C00006C0C03FB0CF3DBB20093A6F12000C6B2E0
:104C100000255EE00C2C07D106EB46002F4901EB86
:104C2000800010F805901BE0102C05D12C4800EBFB
:104C3000061010F8059013E0182C07D106EBC600FB
:104C4000284901EB800010F8059009E0202C05D1DF
:104C5000254800EBC61010F8059001E0BDE8F88F7C
:104C60004FF0000A2FE009F0800030B11F480288A1
:104C700039464046FCF798F807E00A9828B91C48DE
:104C8000028839464046FCF78FF84FEA49604FEA00
:104C90001069781C87B217484088B84200DCDDE70D
:104CA000A7EB0B00A0420AD15F4608F101001FFAF2
:104CB00080F810480088404500DCCFE706E00AF1A4
:104CC000010000F0FF0ABAF1080FCCDB00BF681C3E
:104CD000C5B2009885429DDB00BFBFE7386700087A
:104CE000AC6B00089C710008F87E000820000020D2
:104CF00022000020000100202DE9FC4F07460E464F
:104D000090461C4601962046E21704EB5272D210E0
:104D10002146E31704EB5373DB10A4EBC3030BB181
:104D2000012300E000231A446243D2B200924FF004
:104D3000FF3A182C1FD100251AE098F8000005EB67
:104D4000450101EB0511344A52F8211009788842D7
:104D50000CD198F8010005EB450101EB051152F863
:104D600021104978884201D1AA4603E0681CC5B2E7
:104D7000162DE2D301E0BDE8FC8F0AF1010000B975
:104D8000F9E7002542E0182C09D10AEB4A0000EBB4
:104D90000A10214901EB8000001D10F805904FF02A
:104DA000000B2DE009F0800030B11C48028831462C
:104DB0003846FBF7F9FF07E00B9828B91848028836
:104DC00031463846FBF7F0FF4FEA49604FEA106979
:104DD000701C86B213484088B04200DCCBE70198D3
:104DE000301AA04208D1019E781C87B20D48008875
:104DF000B84200DCBFE706E00BF1010000F0FF0B5A
:104E0000BBF1080FCEDB00BF681CC5B2009885421D
:104E1000B9DB00BFAFE70000B06000082000002051
:104E200022000020000100202DE9F84705460E462B
:104E300090469946DDE9097405F0FF0A08EB050084
:104E40001FFA80F809EB06001FFA80F922E04545B9
:104E500002DB5546F01986B24E4500DB20E0207893
:104E60007F280BDD00203B46224631460090284635
:104E7000FFF742FFE81985B2A41C0BE00020009068
:104E800022783B4631462846FFF798FE05EB67003F
:104E900085B2641C20787F2802D020782028D6DABA
:104EA00000BFBDE8F8872DE9FF4F82B00646924665
:104EB0001F46DDE90F480020019000254DE0781BDA
:104EC000401EC1B20A20FFF7E3FBBAFBF0F00A2153
:104ED000B0FBF1F201FB1209019850BB781EA84209
:104EE00027DDB9F1000F22D108F0800078B108F079
:104EF0000100A34604EBDB71491001FB0561009042
:104F000088B2234630220399FFF758FE0EE008F0DE
:104F10000100A34604EBDB71491001FB0561009021
:104F200088B2234620220399FFF748FE13E00120B0
:104F3000019008F00100A34604EBDB71491001FB6E
:104F40000561009088B209F13001CAB22346039985
:104F5000FFF734FE00BF681CC5B2BD42AFDB06B030
:104F6000BDE8F08F01490880704700000008006C20
:104F70000149088070470000FE07006C0248008964
:104F8000024908807047000000010020FE07006C05
:104F9000024A1080921C118070470000FE07006CCE
:104FA00008B50121482000F095F82020ADF8000058
:104FB00010208DF8030003208DF80200694609488F
:104FC000FBF7A1FC20210748FBF731FD2020ADF8BD
:104FD000000069460448FBF796FC20210248FBF7D5
:104FE00026FD08BD000C01400018014000BFFEE78F
:104FF0007047000070B5002100230F22C47804B36D
:10500000154C246804F4E064C4F5E064210AC1F19D
:105010000403CA40447804FA03F18478144021431D
:1050200009010E4C0678A155047804F01F050124EF
:10503000AC4005786D11AD0005F1E025C5F80041E3
:1050400009E0047804F01F050124AC40044D067803
:10505000761145F8264070BD0CED00E000E400E05C
:1050600080E100E002490143024A116070470000FC
:105070000000FA050CED00E070470000014600203A
:10508000034A506820F440400843506070470000D5
:105090000010024029B1064A52690243044B5A618A
:1050A00004E0034A52698243014B5A617047000091
:1050B0000010024029B1064AD2690243044BDA616A
:1050C00004E0034AD2698243014BDA617047000071
:1050D0000010024029B1064A92690243044B9A61CA
:1050E00004E0034A92698243014B9A6170470000D1
:1050F0000010024029B1064AD2680243044BDA602C
:1051000004E0034AD2688243014BDA607047000032
:105110000010024030B500210022002400232D4D54
:105120006D6805F00C0121B1042905D0082923D1AF
:1051300005E0294D056022E0274D05601FE0254D63
:105140006D6805F47012234D6D6805F480340225F6
:1051500005EB92421CB9214D554305600BE01D4DF6
:105160006D6805F400351DB11C4D5543056002E026
:10517000194D5543056002E0174D056000BF00BFA3
:10518000144D6D6805F0F0010909154D6B5C05685B
:10519000DD4045600F4D6D6805F4E061090A104D72
:1051A0006B5C4568DD4085600A4D6D6805F46051B3
:1051B000C90A0B4D6B5C4568DD40C560054D6D68E7
:1051C00005F44041890B074D6B5CC568B5FBF3F5F1
:1051D000056130BD0010024000127A0000093D0058
:1051E0002400002034000020704710B500F002F8C1
:1051F00010BD00000CB500200190009033480068FD
:1052000040F480303149086000BF3048006800F445
:10521000003000900198401C0190009818B9019846
:10522000B0F5A06FF1D12948006800F4003010B14A
:105230000120009001E0002000900098012843D157
:105240002348006840F010002149086008460068C3
:1052500020F0030008600846006840F00200086083
:105260001A4840681949486008464068486008463E
:10527000406840F4806048600846406820F47C1034
:1052800048600846406840F4E810486008460068F6
:1052900040F08070086000BF0C48006800F00070AB
:1052A0000028F9D00948406820F003000749486009
:1052B0000846406840F00200486000BF034840686C
:1052C00000F00C000828F9D10CBD000000100240CD
:1052D00000200240042808D14FF0E021096941F084
:1052E00004014FF0E022116107E04FF0E02109696D
:1052F00021F004014FF0E022116170477047000077
:1053000010B51348006840F00100114908600846D4
:105310004068104908400E494860084600680E4938
:1053200008400B4908600846006820F480200860A7
:105330000846406820F4FE0048604FF41F00886073
:10534000FFF753FF4FF000600449086010BD0000F4
:10535000001002400000FFF8FFFFF6FE08ED00E03D
:1053600010B540F225511D4800F04AF810B31B4813
:1053700000F002F9C4B21A48008800F40040C8B92D
:105380001748008800F4804060B10A2C03D0002048
:105390001349088020E01248008840F4004010497A
:1053A000088019E00D2C06D10D48008840F480409B
:1053B0000B49088010E00A480088C0F30D00094935
:1053C0000C5407480088401C05490880084600889E
:1053D000C72801DD0020088010BD00000038014012
:1053E0001C0000203800002021B1828942F40052C4
:1053F000828104E082894DF6FF731A4082817047F2
:1054000070B50246002400230025002040F66A16ED
:10541000B14200D100BFC1F3421501F01F030126C4
:1054200006FA03F3012D02D19689334006E0022DDE
:1054300002D1168A334001E0968A33400C120126CD
:1054400006FA04F41688344013B10CB1012000E0D0
:10545000002070BDF0B50346002400260025002082
:1054600040F66A17B94200D100BF1846C1F3421492
:1054700001F01F06012707FA06F5012C01D10C30B7
:1054800004E0022C01D1103000E014301AB107689A
:105490002F43076002E00768AF430760F0BD0000DC
:1054A0002DE9F04786B005460E460024A24600BF0F
:1054B000A1460027B08900B100BF2F462C8A4CF6C8
:1054C000FF700440F08804432C82AC894EF6F31040
:1054D0000440B08831890843718908430443AC8192
:1054E000AC8A4FF6FF400440B0890443AC8201A867
:1054F000FFF710FE1F48874202D1DDF810A001E03F
:10550000DDF80CA0A88900F4004040B10AEBCA0005
:1055100000EB0A1031684900B0FBF1F807E00AEB34
:10552000CA0000EB0A1031688900B0FBF1F8642072
:10553000B8FBF0F004012009642101FB1089A8895F
:1055400000F4004040B1322000EBC900B0FBF1F0A4
:1055500000F00700044308E0322000EB091064214A
:10556000B0FBF1F000F00F0004432C8106B0BDE861
:10557000F08700000038014001468888C0F3080029
:10558000704700BFFEE7014600BF704710B56FF0DF
:105590000400FFF79FFE0A4800680A49B0FBF1F0DB
:1055A000094908700846007800EB4001C1EBC010C3
:1055B0004FF6FF7101EAC0000449088010BD0000E9
:1055C0000000002000127A001400002016000020C5
:1055D0000146114A12884A434FF0E0235A610022E3
:1055E0009A611A46126942F001021A6100BF4FF037
:1055F000E022106900F001021AB100F48032002AA2
:10560000F5D04FF0E022126922F001024FF0E023C2
:105610001A6100229A617047160000200146114A63
:1056200012784A434FF0E0235A6100229A611A46E9
:10563000126942F001021A6100BF4FF0E0221069C6
:1056400000F001021AB100F48032002AF5D04FF0C8
:10565000E022126922F001024FF0E0231A610022D9
:105660009A6170471400002000BF054A128802F0BA
:105670004002002AF9D0C2B2014B1B1D1A807047AC
:10568000003801401CB54FF0000A0025FFF77EFFEF
:105690004FF4A060FFF7E6FC4FF4E13000F03AF978
:1056A000FBF7FCF9FFF77CFCFBF73CFCFAF7D2FFB9
:1056B000FBF768F84FF478407E4908807EA01821F7
:1056C0000B464FF49672CDE9001038210020FFF709
:1056D000ABFB80A018210B464FF49672CDE9001069
:1056E00054210020FFF7A0FB7FA018210B464FF4A8
:1056F0009672CDE9001070210020FFF795FB7DA088
:1057000018210B464FF49672CDE900108C21002031
:10571000FFF78AFB00210846FBF724F8C9E00AF1ED
:10572000010000F0FF0A0020FBF7D6F90446032C25
:105730000AD1B5F57A6F02DA05F1C80085B22946BB
:105740000020FBF70FF80CE0022C0AD1C82D03DD76
:10575000A5F1C80085B200E0002529460020FBF72E
:1057600001F8BAF10A0F03D0022C01D0032C7CD12E
:105770001F20504908800020FAF7C8FF0646002085
:10578000182104233246CDE9001070216020FFF774
:105790008AFB304600F02CFB834600F07BFA4FF08A
:1057A0006632594BCDE9000100F076F9074600F06A
:1057B00001F98146484600F0FBFA86B2484600F0FF
:1057C000F7FA07460020182101233A46CDE90010D8
:1057D0008C219020FFF767FB304600F009FB07465D
:1057E000494600F0E5FB81464849484600F014FB75
:1057F0008146484600F0DCFA074680201821032342
:105800003A46CDE900108C21A820FFF74CFB0A2175
:105810000120FBF729F986B2304600F0E9FA834609
:1058200000F038FA4FF06632374BCDE9000100F056
:1058300033F9074600F0BEF88146484600F0B8FA52
:1058400086B2484600F0B4FA07460020182101232A
:105850003A46CDE9001054219020FFF724FB304652
:1058600000F0C6FA0746494600E01FE000F0A0FB42
:1058700081462649484600F0CFFA8146484600F066
:1058800097FA07468020182103233A46CDE90010F5
:105890005421A820FFF707FB1D48006808B9012024
:1058A00000E000201A4908604FF0000A0A20FFF7C4
:1058B0008FFE34E720000020D7E9D4B13AD6A3B454
:1058C000EFB3C92CCBCEBFA1BFB52CB7BDBFACC900
:1058D000FA000000414443B5C4B5E7D1B9D6B53AA2
:1058E000302E303030560000444143B5C4D6B53A6E
:1058F00000000000444143B5C4B5E7D1B9D6B53A7C
:10590000302E30303056000066664A3F00007A4440
:105910009401234210B586B00446012144F20400EC
:10592000FFF7D8FB4FF40070ADF8140003208DF89A
:10593000160018208DF8170005A91C48FAF7E3FF98
:105940004FF48060ADF8140004208DF8170005A90D
:105950001648FAF7D8FF25208DF8000003208DF8AF
:1059600001008DF8020001208DF803006846FFF762
:1059700041FB01940020ADF80800ADF80A00ADF835
:105980000C00ADF810000C20ADF80E0001A908487D
:10599000FFF786FD012240F225510548FFF75AFD29
:1059A00001210348FFF720FD06B010BD00080140AB
:1059B0000038014021F00042A2F16052B2F5801F90
:1059C00001F0004328BFD2F17F6C0BD95FEA001CC5
:1059D00043EAC20242EB507018BF704728BF20F064
:1059E00001007047B2F5801FBCBF184670474FEAF0
:1059F000410C1CF5001F02D2084600F0D4BA70B565
:105A000000F0F4F800000089FFF7F6BF4FF0004007
:105A1000A0F58000704700004FEA1153A3F58063A2
:105A2000D3F11E03A8BFD3F1200C08DB4FF00042D6
:105A300042EAC12252EA505232FA03F07047094258
:105A40000BD4102BC4BF0020704703F5787CBCF149
:105A5000FF3F05D04FF0FF3070474FF00000704718
:105A600070B500F0C3F800BF499224800020704751
:105A7000F0E7B0FA80F310FA03F10AD0C3F11D0386
:105A800003F580634FEA41504FEA035202EBD12104
:105A900070474FF000007047DFF848C170B51CEA4E
:105AA000111E1EBF1CEA13159EEA0C0F95EA0C0F7F
:105AB00000F06F8081EA030423EA4C134EEAD47E9F
:105AC00021EA4C1141F4801143F48013AE44A1FB50
:105AD000024CA0FB0365AEF17F7E361955EB0C0539
